:020000040800F2
:10000000B807002061020008213100086D2F0008A8
:100010001D310008B5130008593200080000000027
:10002000000000000000000000000000293100086E
:10003000B913000800000000253100082D31000828
:100040007B0200087B0200087B0200087B0200089C
:100050007B0200087B020008BD130008C5130008DE
:100060007B0200087B020008CD1300087B02000819
:100070007B0200087B0200087B0200087B0200086C
:100080007B0200087B0200087B0200087B0200085C
:100090007B0200087B0200087B0200087B0200084C
:1000A0007B0200087B0200087B0200087B0200083C
:1000B000353100087B0200087B0200087B02000843
:1000C0007B0200087B0200087B0200087B0200081C
:1000D0007B0200087B0200084D3200087B0200080A
:1000E0007B0200087B0200087B02000800F002F897
:1000F00000F0A6F814A696E8000CB244B344DA4522
:1001000001D100F09DF8BAE80F000FA696E8300084
:10011000A5EB040504EB0607AAEB0704A7F101070A
:100120004FEA15154FEA3414A4F10104AC4201D38F
:1001300000F086F813F0010F18BFFB1A43F001031B
:1001400000F001F8DBE718470058000020580000D5
:10015000103A24BF78C878C1FAD8520724BF30C8F3
:1001600030C144BF04680C60704700007047000055
:100170000023002400250026103A28BF78C1FBD8B0
:10018000520728BF30C148BF0B6070476E2900F08E
:100190004581702900F08782662905F0F68165297E
:1001A00005F0F381672905F0F081612905F0EF8101
:1001B00003681B0A28BF41F08001692900F0F28022
:1001C000642900F0EF80752900F0EC806F2900F0C1
:1001D0001582782900F05382E92900F0AF81E429E3
:1001E00000F0AC81F52900F0A981EF2900F012821E
:1001F000F82900F052820368DB0928BF41F0800132
:10020000632900F05787732900F05C87E32900F029
:100210006787F32900F06C87002070471FB500F056
:10022000C1FF04000020002104F076F9401C60604A
:100230000020002104F05AF9E0601FBD10B510BD88
:1002400000F082FF1146FFF7E9FF03F09BF801F091
:100250005FF803B4FFF7F2FF03BC01F0A3F800005E
:100260000948804709480047FEE7FEE7FEE7FEE74A
:10027000FEE7FEE7FEE7FEE7FEE7FEE70448054986
:10028000054A064B7047000031310008ED000008B8
:10029000B8010020B8070020B8030020B8030020F0
:1002A0001CB50C46064B7B4469460090204600F086
:1002B000CEF804460020694600F0DCF820461CBD5C
:1002C000CB01000070477047704710B500F0BAFAD4
:1002D000006810BD10B5044600F0B4FA046010BD0B
:1002E00070B5044685690068C10601D5302600E076
:1002F0002026C00707D070BDD4E9012130469047C1
:10030000206A401C20626D1EF6D570BD70B5044693
:1003100085690078C00707D170BDD4E9012120208C
:100320009047206A401C20626D1EF6D570BD09689A
:100330004A0501D540B27047C905FCD500B27047E7
:1003400009684A0501D5C0B27047C905FCD580B21D
:10035000704770B50C460546012A05D028788006FE
:1003600000D5EA69002302E0012305E05B1C93420B
:1003700002D2E05C0028F9D1A869E618C01AA86189
:10038000286A184428622846FFF7AAFF04E0D5E946
:10039000012114F8010B9047B442F8D32846FFF727
:1003A000B5FF70BD2DE9F04106460024106875299F
:1003B000314616A510D0FFF7BAFF002802DA4042F6
:1003C00013A507E031688A0701D512A502E04907A5
:1003D00004D511A5012401E0FFF7B2FF00210A2294
:1003E00006F1240709E0B0FBF2FCB0FBF2F302FBDC
:1003F0001C00303078541846491C0028F3D123469D
:100400002A463046BDE8F04100F065BA0000000021
:100410002D0000002B000000200000001168026881
:10042000006A530501D508700AE0D30501D508809C
:1004300006E0130603D5C217C1E9000200E0086018
:100440000120704701694A1C02610878704700B5B5
:100450008FB0CDE901310021059105497944CDE9FD
:1004600003101146684600F029F90FB000BD0000E6
:10047000E5FFFFFF0A6802F8010B0A607047000001
:100480002DE9FF5F15468A460446DFF8AC80F84444
:100490000027D8E900103E46CDE9001010E03AF8F8
:1004A00016106A4602A800F027FE411C07D02178EA
:1004B000890603D5E269391891420DD80744761CA4
:1004C0002078800602D5E069B84205DDAE42E6DB61
:1004D0003AF816000028E2D1A069C01BA0612046AE
:1004E000FFF7FEFED8E90010CDE90010002017E06C
:1004F0003AF818106A4602A800F0FEFDB0F1FF3F7E
:1005000081460BD000250DF1080B05E0D4E901214F
:100510001BF8050090476D1C4D45F7D308F101000D
:10052000B0428046E4DB206A384420622046FFF770
:10053000EDFEBDE8FF9F0000F25100002DE9F04103
:100540008046D21D22F007020025D2E90002F529DB
:1005500015A614D0011E72F1000106DA0023D0EBBB
:10056000030063EB020211A608E0D8F800108B0725
:1005700001D50FA602E0490701D50EA601251146B7
:10058000002408F1240704E000F060F930323A5505
:10059000641C50EA0102F7D12B4632462146404600
:1005A000BDE8F04100F097B9000000002D00000008
:1005B0002B0000002000000030B4002100F12404D2
:1005C00008E002F00705D208303542EA4372DB0842
:1005D0006554491C52EA0305F3D10468002310A2B4
:1005E000250708D504F020040C4304D0C469012376
:1005F0000CA2641EC46130BC00F06DB910B5044695
:1006000021461068FFF79CFE02462046BDE81040D8
:100610000023D1E7D21D22F00701D1E90023CBE767
:100620000000000030000000F0B40D46018809050C
:1006300002D5214C7C4402E01F4C7C440E34002146
:1006400000F1240608E002F00F071209E75D42EA14
:1006500003721B097754491C52EA0307F3D102784D
:100660000023120704D5702D06D009B102231134DE
:100670002246F0BC00F02FB901231034F8E770B522
:1006800004460D4621461068FFF75AFE02462946E9
:100690002046BDE870400023C6E7D21D22F00703C4
:1006A000D3E90023C0E70368126843F02003036026
:1006B0000823C3610023B7E7545000002DE9F05F21
:1006C000894604464FF0000ADFF874B1FB44C0F8D5
:1006D00020A02046E1688847002874D0252806D04D
:1006E000D4E901219047206A401C2062F1E70026EE
:1006F0005F462046E16888472028054607DB312D04
:1007000005D2781910F8200C08B10643F1E7B007BC
:1007100001D526F00406C4F81CA00027C4F818A0D0
:100720002A2D09D0284603F089FE38B304EB870848
:10073000303DC8F8185019E059F8041B204604EB66
:1007400087029161E1688847012F054618D1E06969
:10075000002820DA26F020061DE0D8F8180000EB6B
:10076000800005EB40003038C8F818002046E168EA
:100770008847054603F062FE0028EED1012F0AD01B
:100780002E2D08D12046E16888477F1C0546022FA0
:1007900046F02006C4DBA069002803DA404246F098
:1007A0000106A061F00701D026F010066C2D0BD0D9
:1007B000682D09D04C2D39D06A2D35D0742D35D007
:1007C0007A2D33D016E038E0E1682F46204688477E
:1007D000B842054609D16C2F26D04FF48060E168FD
:1007E000064320468847054604E06C2F1AD04FF494
:1007F000807006430DB3A5F14100192802D82035B9
:1008000046F400664A462946204626604E46FFF7D3
:10081000BDFC80B101280BD0F61D26F0070000F1C9
:10082000080956E74020E4E78020D8E70020D6E713
:1008300006F104094DE7284652E7206ABDE8F09F1B
:10084000E44F0000004870472800002030B5B0F1A8
:100850000A0271F100034FEA900E4EEA817EB0EB7E
:100860000E0061EB91014FEA101E4EEA017E10EB83
:100870000E0041EB11114FEA102E4EEA016E10EB03
:100880000E0041EB11214FEA104E4EEA014E10EBE3
:100890000E0041EB1141401841F100014FEAD00038
:1008A00040EA41704FEAD1014FEA810444EA907472
:1008B00010EB800544EB01046D1944EB0404521B5A
:1008C000A3414FF0000348BF0A3200D530BD401CA1
:1008D00041F1000130BD2DE9F0470D4699469246A1
:1008E000044600F124080168880604D5E06921F077
:1008F0001001216000E00120A84201DD471B00E05B
:100900000027A1697A1902EB0900081AA061207872
:10091000C00602D42046FFF7E3FC002608E0D4E935
:1009200001211AF806009047206A401C761C2062BC
:100930004E45F4DB2078C0060AD52046FFF7D0FCF0
:1009400006E0D4E9012130209047206A401C206253
:10095000381EA7F10107F4DC07E0D4E9012118F8FB
:1009600005009047206A401C2062281EA5F1010561
:10097000F3DC2046FFF7CAFC2078000602D50220EF
:10098000BDE8F0870120FBE72DE9FF4F0C461E462E
:100990004FF0FF378BB0D2E90001DDF860800A909C
:1009A0008A46C1F30A5505B93D46002108464FF075
:1009B0000000BAF1000F00F4400005DA00EB8000FF
:1009C0004FF4400101EA50004FEA9059B9F1010F8C
:1009D00000DDB9460A9850EA4A000ED044F610509D
:1009E000A5F2FF3545432F14B8F1000F1ED0754214
:1009F000291E1EDDC9F100021CE0B8F1010F4FF005
:100A0000000001D0302103E0F24305E02154401CF6
:100A1000B042FBDB30460022002121540B99C1F883
:100A20000880C1E900200FB0BDE8F08FBD1B6D1C30
:100A3000DEE74A4600DA694206A800F0F7FB06AB9B
:100A400093E8070003AB83E8070050460A9902F0D9
:100A5000F8FD8DE80700A0F500501F3800900398BE
:100A6000002D0ADD42F21F014A460844002303A973
:100A70000390684603F062F809E0A0F500504A468A
:100A80001F38002303A90390684603F06CF88DE833
:100A900007000004000C03D04FF0FF30410800E0D5
:100AA0001046B8F1000F03D00022009215461EE058
:100AB000751E05D4FFF7CAFE303262556D1EF9D59A
:100AC000B3460122084302D000227F1C04E02078B4
:100AD000302801D100227F1E002A099784D01DE012
:100AE000112D07DAFFF7B2FE303262556D1C50EA65
:100AF0000102F5D1084302D00098C8B10EE00021F0
:100B0000681E05E0235C625C63542254401E491C4D
:100B10008142F7DBAB46A81B401E0990002004F879
:100B20000B000B98099AC0F80880C0E9002B7AE7FF
:100B300011264FF0000857E72DE9F04F884604468C
:100B4000D21D22F0070191B0D1E90001CDE90A01DF
:100B500003F040F902460B98C00F01D02D2007E0AA
:100B60002068810701D52B2002E0202101EAC00086
:100B7000032A099001D0072A05DB03464146204697
:100B800000F014FB0BE12078800601D5E06900E05D
:100B90000620B8F1650F814606D0B8F1660F18D06F
:100BA000B8F1670F70D131E00020B9F1110F00905A
:100BB00001DB112301E009F101030AAA01A90CA834
:100BC000FFF7E2FEDDE90C70002609F1010583461E
:100BD00047E001204B4600904FF000470AAA01A9C8
:100BE0000CA8FFF7D1FEDDE90DB00C995D4600269B
:100BF00010B909F101000D18B9EB050003D4C0F1DB
:100C0000FF3609F10105A5EB09002BE0B9F1010F51
:100C100001DA4FF001090020B9F1110F00904846A8
:100C200001DD112300E003460AAA01A90CA8FFF781
:100C3000ABFEDDE90C704D460026834620780007A8
:100C40000AD4AB4500DA5D4601A8012D04DD411947
:100C500011F8011C302907D04F4502DA17F1040FB3
:100C600004DA012082460FE06D1EEEE7002F02DC61
:100C7000ED1B3E4403E0781CA84200DD7D1CB81B40
:100C800000F1010A4FF000472078000703D4AA457D
:100C900001DB4FF0FF3A0021B7F1004F0DF143089F
:100CA0008DF8431024D002202B23002F01DA7F423D
:100CB0002D230A21021EA0F1010000DC5FB197FB89
:100CC000F1FC97FBF1F201FB1C7C17460CF1300C98
:100CD00008F801CDEEE7A8F10100037021880905AD
:100CE00001D5452100E06521A0F1010800F8011CB3
:100CF00009980FA9A1EB0807FF1D00B101204119B8
:100D000001EBEA70A1693844081A401EA0612078FE
:100D1000C00602D42046FFF7E3FA099828B1D4E9C7
:100D200001219047206A401C20622078C00622D50D
:100D30002046FFF7D5FA1EE0002E04DBB34502DDA6
:100D400001A8805D00E03020D4E901219047206AAD
:100D5000401C2062761CAAF101005FEA000A0AD159
:100D600000F020FAC0680168405CD4E90121904796
:100D7000206A401C2062281EA5F10105DCDC07E08A
:100D8000D4E9012118F8010B9047206A401C206229
:100D9000381EA7F10107F3DC2046FFF7B7FA03205E
:100DA00011B041E62DE9F04F04460D46D21D22F068
:100DB000070089B0D0E900974846394603F00AF8A1
:100DC0000246F80F01D02D2307E02068810701D5E6
:100DD0002B2302E0202101EAC0038DF820300BB163
:100DE000012000E00020032A824601D0072A04DB0C
:100DF0002946204600F0DAF93FE12078800601D448
:100E00000D2500E0E569C7F30A560D2D49DA0021EA
:100E10004FEA175B08464FF00000002F00F4400037
:100E200007DA00EB80004FF4400100EBD07001EADC
:100E300060008115012901DD4FF0FF3100224FEAEA
:100E4000850CBCF1180F06D31346ACF118004FF017
:100E50008052C24003E04FF4801323FA0CF30CF1EC
:100E60000C0CBCF1200F04D3ACF1200C09FA0CF0EF
:100E700001E007FA0CF000294FF0004801DD18B935
:100E80000FE00ED140450CD319EB02095F4121B9A7
:100E9000404502D19F4329EA0209BBEB175F00D00E
:100EA000761C2088000502D57B48784402E07A4809
:100EB0007844193808AA302302F80A30037C0AF172
:100EC0000101002E0AF1020A53546A4602DC4FF077
:100ED000300101E04FF031014FF001088DF80010B2
:100EE00002D0A6F2FF3603E059EA470100D06B4E6C
:100EF000002D02DC2178090704D54FF002082E21CD
:100F00008DF80110C44600210BE0C7F303433F01F5
:100F1000C35C491C6D1E02F80830052908F1010860
:100F200001DA002DF1DC00210CE000EB1973491C03
:100F30001B786D1E082902F808304FEA091908F1DC
:100F4000010801DA002DF0DC21688B0602D516E0DD
:100F5000A8F10108E04505DD02EB080313F8013CA8
:100F6000302BF5D0B8F1000F09DD02EB080313F8C0
:100F7000013C2E2B03D1090701D4A8F10108002D53
:100F800005DD3E2102F808106D1E08F10108407CC5
:100F9000002E02F8080008F1010804DA2D2076423C
:100FA00002F8080002E02B2002F808000A214FF4A2
:100FB0007A70864208F101080BDB96FBF0F33033C0
:100FC00002F8083096FBF0F308F1010800FB136605
:100FD00001E0642E0CDB642096FBF0F3303302F862
:100FE000083096FBF0F308F1010800FB136601E0FE
:100FF0000A2E06DB96FBF1F0303002F8080008F10B
:10100000010896FBF1F001FB1060303002F8080097
:10101000A16908F1010808EB050202EB0A00081AB1
:10102000A0612078C00602D42046FFF759F9216A52
:1010300008AE01EB0A00206204E0D4E9012116F8B1
:10104000010B9047BAF1010AF7D22078C00602D509
:101050002046FFF745F96E4609E016F8010B3E28D9
:101060000FD0D4E901219047206A401C2062B8F1DA
:101070000108F2D22046FFF749F909B00320BDE884
:10108000F08F206A2844206203E0D4E90121302057
:1010900090476D1EEBD3F8E75549000002FCFFFFB7
:1010A00010B5436913B1AFF3008001E0FFF751F9C8
:1010B000012010BD127800F124010A7000224A704C
:1010C0000122EDE711684FF0FF32E9E710B54369FF
:1010D00013B1AFF3008001E0FFF7D2F9012010BD9A
:1010E000128800F1240182840022C2840122EDE7EB
:1010F00011684FF0FF32E9E72DE9F04116460C4642
:10110000054600F047F8036893F80101012807D06D
:10111000FF2C12D8185D80B101202C70BDE8F08141
:10112000D3F807013246214603F20713C7182846B1
:10113000BC46BDE8F041002360474FF0FF30EDE7CB
:1011400000487047280000207546FFF7F9FFAE46BB
:1011500005006946534620F00700854618B020B5C3
:10116000FFF78CF8BDE820404FF000064FF0000775
:101170004FF000084FF0000BAC46ACE8C009ACE8FB
:10118000C009ACE8C009ACE8C00921F007018D46F0
:101190007047000010B500F005F8001D10BD00BF3D
:1011A0007933000000487047480000202DE9F041E5
:1011B0001F46044603260168072A01F4006004DB89
:1011C00008B116A505E016A503E008B115A500E0D5
:1011D00015A521F010002060A069C01EA0610FB10C
:1011E000401EA0612046FFF77BF84FB1D4E90121F2
:1011F00038469047206A401C2062C01C206206E0EE
:10120000206AFAE7D4E9012115F8010B9047761E10
:10121000F8D22046FFF77AF8BDE8F0814E414E0043
:101220006E616E00494E4600696E66002DE9F0471A
:10123000814616468AB0354878440DC88DE80D00C1
:1012400032487844801C03AC0DC884E80D0041F698
:101250009B300844372190FBF1F290FBF1F5A5F1AA
:10126000800501FB12041B3C02D56442012000E012
:101270000020DFF898A080460027FA44AAF1BE0AB1
:101280000EE0E0070AD03246684607EB470101232B
:101290000AEB810102F067FC8DE8070064107F1CF7
:1012A000002CEED1194F7F44AE3F19E0E80715D06E
:1012B00007EB04100DF1180A90E80E008AE80E0002
:1012C000C068F04201D1981908903246012306A95E
:1012D00003A802F048FC03AB83E807006D10641C10
:1012E000002DE3D14FF0010332466946B8F1000FFB
:1012F00003A802D002F022FC01E002F034FCC9E9AC
:101300000001C9F808200AB0BDE8F087584600007F
:1013100010B50446AFF300802046BDE81040FEF74C
:1013200098BF00004FF0013C50F8042B51F8043BEB
:101330009A4221D1A2EB0C03934313EACC1317D1A9
:1013400050F8042B51F8043B9A4215D1A2EB0C0340
:10135000934313EACC130BD150F8042B51F8043B00
:101360009A4209D1A2EB0C03934313EACC13DBD0CE
:101370004FF00000704700BFD01A01BAB1FA81F1F6
:1013800001F0180122FA01F0CB40DBB2C0B2C01A62
:10139000C1F120012CFA01F3D11A914311EAC311D2
:1013A000E6D1704701491820ABBEFEE726000200D7
:1013B00070470000FEE7000070470000012000F0C9
:1013C00029B90000022000F025B90000102000F02B
:1013D00021B9000070470000014690F82100022862
:1013E00016D10868D1E90FC3026822F00E0202602C
:1013F000026822F001020260012000FA03F2CCF838
:10140000042081F821000020002281F8202070476C
:10141000042088630120002281F82020704700000A
:1014200090F82110022923D1026840F2040C1168BF
:10143000C4F2020C21F00E01116013682F21C4F2D6
:1014400002018A4223F00103136015DD3023C4F248
:1014500002039A421CD04423C4F202039A421BD0D6
:101460005823C4F202039A421CD14FF4803321E086
:1014700004218163012070470823C4F202039A42C9
:101480000ED01C23C4F202039A420BD1102311E0A8
:101490004FF480730EE000BF4FF480530AE000BFAA
:1014A000012307E00CF168014FF080738A4208BF06
:1014B0004FF480130121CCF8003080F82110416BEB
:1014C0000022002980F8202004BF0020704780B54A
:1014D0008847002080BD0000B0B5044600F0B4F994
:1014E000012C57D0102C35D0022C79D140F2880431
:1014F000C2F200046168411A332971D36060207818
:1015000000286FD000202070206140F20000C2F25D
:101510000000C17A4278C170017111404171FF2110
:101520008171607848B145F6441045F6D601C0F6A1
:101530000000C0F6000101F0F7FE45F6FD01C0F61F
:10154000000145F64410C0F60000BDE8B04001F0CF
:10155000EBBE00BF40F28801C2F200018A68821A25
:10156000332A3DD388600878D0B340F20000C2F23D
:1015700000008178013181708178042924BF012124
:101580008170817845F62F10C0F60000BDE8B040AC
:1015900001F0CABE40F28801C2F20001CA68821A94
:1015A000332A1DD3C8600878002808BFB0BD48782A
:1015B00045F6D602B0FA80F040094870487845F602
:1015C000E901C0F60001C0F60002002808BF11467C
:1015D00045F64410C0F60000BDE8B04001F0A4BEDE
:1015E000B0BD00BF0125257000F02EF9606140F20A
:1015F0000000C2F200008570002045F609116070FD
:10160000C0F6000145F64410C0F60000BDE8B04049
:1016100001F08ABE40F21441C4F201010A6802429C
:1016200014BF08607047FFF757BF00002DE9F04F67
:1016300082B00E68002E00F0FD8041F20042C4F23C
:101640000102042340F2004E904208BF03234FF6EC
:10165000FF7CC4F2010E009300240123C1F2100CA0
:101660004FF0000A4FF000094BE000BF41F20002CA
:10167000C4F20102009F904208BF022704F00C034D
:101680000F229A402BEA020207FA03F34FEA9A0567
:101690001A4346F825204E6840F20C45F202DEF867
:1016A000082054BF22EA080242EA0802C4F20105F7
:1016B000CEF808202A68B30254BF22EA080242EAA0
:1016C00008022A60B303DEF8042054BF22EA0802AD
:1016D00042EA0802F303CEF80420DEF800204FF0BF
:1016E000010354BF22EA080242EA0802CEF80020B1
:1016F0000E680AF1010A36FA0AF204F1040400F055
:10170000998003FA0AFB16EA0B08F1D04E68664589
:1017100012DC122E56D8DFE806F0350B4D49555530
:10172000555555555555555555555545510000BFBD
:10173000D1F80C9046E000BF4FF6FF72C1F22102D3
:1017400096420FDC0022C1F2110296421AD000220A
:10175000C1F21202964215D00022C1F22102964235
:1017600010D02FE00022C1F2220296420AD00022BD
:10177000C1F23102964205D00022C1F232029642F5
:1017800020D100BF8A684AB1012A14BFC0F814B042
:10179000C0F810B04FF0080914E000BF4FF0040982
:1017A00010E000BFCA6802F104090BE04FF0000925
:1017B00008E000BFCA6802F1080903E0CA6802F144
:1017C0000C0900BF02462646B8F5807F24BF0432CC
:1017D000203E17680F25B54027EA050509FA06F6E9
:1017E00035431560CA79D2067FF582AF41F21803FE
:1017F000C4F202031A68AEF57E7642F001021A6066
:101800001A6802F001020192019A2AF0030256F8C6
:1018100002B040F60002C4F20102904208D040F645
:101820000042C4F2010290427FF420AF012725E775
:10183000002723E702B0BDE8F08F0000002A08BFB0
:10184000090401617047000040F2B410C2F20000C8
:101850000068704740F2180040F2B411C2F2000074
:10186000C2F2000100780A68104408607047000066
:1018700080B542F20000C4F20200016841F010019C
:101880000160032000F08CF80F2000F005F800F054
:1018900027F8002080BD000070B540F21806C2F2A3
:1018A000000640F220013278C2F200014FF47A7350
:1018B0000968B3FBF2F20446B1FBF2F1084600F00E
:1018C00085FB0F2C4FF0010508D838B94FF0FF30D9
:1018D00021460022002500F037F87460284670BDCC
:1018E00082B041F21800C4F202000168042241F003
:1018F00001010160016801F0010101910199416854
:1019000041F080514160406800F0805000900098A4
:101910000420C4F20100016862F31A61016002B0A0
:1019200070470000002848BF704700F01F010122E7
:1019300002FA01F11C2202EAD0004EF20012CEF2AD
:10194000000281507047000010B54EF60C5CCEF2DC
:10195000000CDCF80030C3F3022E8EF00704042CD8
:1019600028BF0424BEF103034FF0FF3E0EFA04F437
:1019700038BF0023A14399400EFA03F39A43114361
:1019800000F00F0200F160430901043A03F56443DB
:101990006244002848BF02F10C03197010BD00001A
:1019A0004EF60C51CEF200010A684FF6FF031A40C2
:1019B00060F30A2242F0806040F0FD7008607047DA
:1019C000002804BF012070472DE9F04381B042F2A6
:1019D0000008C4F202080446D8F800000D4600F0E2
:1019E000070081420CD9D8F8000020F007002843F6
:1019F000C8F80000D8F8000000F00700A8426CD139
:101A0000206841F204098107C4F2020917D5410791
:101A100005D5D9F8001041F4E061C9F800100107BC
:101A200005D5D9F8001041F46051C9F80010D9F873
:101A30000010A26821F0F0011143C9F80010C0079E
:101A400042D1D8F8000000F0070085420CD2D8F847
:101A5000000020F007002843C8F80000D8F8000074
:101A600000F00700A84238D12068410707D5D9F80F
:101A70000010E26821F4E0611143C9F8001000078A
:101A800008D5D9F80000216920F4605040EAC1006F
:101A9000C9F80000D9F8002002F00C00082841F233
:101AA0000020C0F27A004DD145F6C603C2F383414F
:101AB000C0F60003595CD20338D440F60010C0F2DF
:101AC0003D0048433EE000BF606859F8041C02280E
:101AD00008D0012826D1890306D4012001B0BDE831
:101AE000F08300BF8901F8D5D9F8001021F0030177
:101AF0000843C9F80000FFF7A7FE064641F2883701
:101B0000D9F80000616800F00C00B0EB810F98D0AC
:101B1000FFF79AFE801BB842F2D9032001B0BDE85E
:101B2000F08300BF8907D8D5DEE700BFD9F80020D1
:101B300045F6C403C2F34042C0F600039A5C484332
:101B4000B0FBF2F0D9F8001045F6AC02C1F3031176
:101B5000C0F60002515C40F2200220FA01F140F28E
:101B60001C00C2F200000068C2F200021160FFF720
:101B700093FE002001B0BDE8F083000040F2200099
:101B800041F20401C2F20000C4F2020100680968D7
:101B900045F6BC02C1F30221C0F60002515CC84008
:101BA0007047000040F2200041F20401C2F2000040
:101BB000C4F202010068096845F6BC02C1F3C22103
:101BC000C0F60002515CC84070470000002804BF06
:101BD000012070472DE9F04182B00446007841F2BF
:101BE0000006C007C4F202060CD0706800F00C00BA
:101BF000042840F081803068800303D560680028A5
:101C000000F04681207880071BD5706810F00C0F1B
:101C100009D0706800F00C00082840F087807068D8
:101C2000C00300F183803068800703D52069012854
:101C300040F02E813068616920F0F80040EAC10070
:101C400030602078000713D4207840072CD4E56951
:101C5000002D00F01881706800F00C00082840F09A
:101C6000A780012D40F00481012002B0BDE8F08181
:101C7000A069002800F084800020C4F242200121E5
:101C8000C0F88014FFF7E0FD054600BF706A8007CA
:101C900000F1B280FFF7D8FD401B0228F6D90320DF
:101CA00002B0BDE8F08100BFF0695FEAC00808D467
:101CB000F06940F08050F061F06900F080500090D1
:101CC000009847F20007C4F200073868C00549D4FD
:101CD000386840F480703860FFF7B6FD054600BFF5
:101CE0003868C0053ED4FFF7AFFD401B6428F7D924
:101CF000032002B0BDE8F081706800F00C000828F5
:101D000003D17068C0033FF576AF61683068002981
:101D100000F00C81B1F5A02F00F00081B1F5803FFB
:101D200040F01A8140F480301CE100BF2069002897
:101D300040F20000C4F2422000F0888001210160DE
:101D4000FFF782FD054600BF306880073FF572AFA0
:101D5000FFF77AFD401B0228F6D9032002B0BDE848
:101D6000F08100BFE168306A002900F09D800529FC
:101D700000F09280012940F0AF8040F00100B1E016
:101D80000020C4F242200021C0F88014FFF75CFD5F
:101D9000054600BF706A80077FF556AFFFF754FD18
:101DA000401B0228F6D9032002B0BDE8F08100BF35
:101DB0000027C4F2422700203866FFF745FD022DB8
:101DC00005460DD13068800140F1DE80FFF73CFD13
:101DD000401B02284FF00300F4D902B0BDE8F081A7
:101DE000306880014FD5FFF72FFD401B02284FF0D0
:101DF0000300F5D9F1E700BF40F22000C2F2000075
:101E0000006844F6D351C1F26201A0FB0101480A07
:101E1000019000BF00BF0198411E002801913FF4CE
:101E200013AF00BF0198411E002801913FF40CAF91
:101E300000BF0198411E002801913FF405AF00BF8B
:101E40000198411E00280191E4D1FDE600210160C6
:101E5000FFF7FAFC054600BF306880077FF5F1AE5A
:101E6000FFF7F2FC401B02284FF00300F4D9B4E75F
:101E70007068216A00F480328A4209D1616A00F4F4
:101E80007010884204D1002002B0BDE8F08100BF8C
:101E9000012002B0BDE8F08140F004003062306AF9
:101EA00040F001001EE000BF20F001003062306A07
:101EB00020F004003062FFF7C7FC054641F2883786
:101EC000306A800720D5FFF7BFFC401BB8424FF0B7
:101ED0000300F5D981E700BF20F001003062306ACD
:101EE00020F004003062FFF7AFFC054641F288376E
:101EF000306A800708D4FFF7A7FC401BB842F7D927
:101F0000032002B0BDE8F081B8F1000F3FF59FAEAD
:101F1000F06920F08050F06199E600BF40F4802025
:101F20003060306840F480301CE000BF20F4803026
:101F30003060306820F480203060FFF785FC054673
:101F4000306880037FF55EAEFFF77EFC401B64289F
:101F50004FF00300F4D940E720F48030306030685F
:101F600020F480203060FFF76FFC05463068800366
:101F70003FF548AEFFF768FC401B6428F6D9032004
:101F800002B0BDE8F08100BF206AB0F5803F05D106
:101F90007168A26821F40031114371607168626A4E
:101FA00021F4741111430843706001203866FFF773
:101FB0004BFC0446306880013FF565AFFFF744FCF9
:101FC000001B02284FF00300F4D906E7411E002051
:101FD000B0EB116F1CBF012070474EF21002CEF221
:101FE000000251604EF62351CEF20001F0230B7037
:101FF0000721906011607047704700007047000033
:1020000090F83C20012A4FF0020236D010B580F83B
:102010003D200268D2F804E0D2F808C00C682EF027
:102020007003234340F2FF74C4F20004A2425360E1
:102030000ADCB2F1804F13D040F20043C4F2000337
:102040009A420DD011E000BF42F60043C4F20103F2
:102050009A4205D040F60003C4F200039A4204D12C
:1020600049682CF08003194391600121002280F817
:102070003D1080F83C20BDE810401046704700003D
:10208000002804BF0120704710B590F83D1031B909
:10209000002180F83C10044600F070F82046022130
:1020A00080F83D10016840F2FF740B68C4F2000430
:1020B00042F6004CA142C4F2010C15DCB1F1804F94
:1020C0001AD040F20042C4F20002914214D0A14260
:1020D00018DCB1F1804F1DD040F20042C4F2000282
:1020E000914217D01AE000BF614505D040F60002CA
:1020F000C4F200029142EAD1826823F070031343D4
:10210000A142E6DD614505D040F60002C4F20002BE
:10211000914203D1026923F440731343846923F08D
:102120008002D0F804E0C368224361450A60CB62B4
:10213000C1F828E002D14269CCF8302001224A617E
:102140000B69DB0703D00B6923F001030B6180F8F7
:10215000462080F83E2080F83F2080F8402080F81C
:10216000412080F8422080F8432080F8442080F805
:10217000452080F83D20002010BD00000068B0F12F
:10218000804F18BF704780B582B041F21C00C4F286
:1021900002000168002241F0010101600068002195
:1021A00000F00100019001981C20FFF7CDFB1C20DE
:1021B00002B0BDE88040FFF7B5BB000090F83D10CD
:1021C00001291CBF01207047022180F83D100068E2
:1021D00040F2FF72C168C4F20002904241F0010176
:1021E000C16009DCB0F1804F12D040F20041C4F26E
:1021F000000188420CD012E042F60041C4F2010115
:10220000884205D040F60001C4F20001884206D1A0
:10221000816801F00701062904BF002070470168AA
:1022200041F00101016000207047000090F83C205F
:10223000012A4FF002026CD080B580F83D20D0F822
:1022400000C04FF67772DCF8083023EA0202CCF8BF
:1022500008200B684F2B29DC1F2B45DD202B46D097
:10226000302B44D0402B40F0AF80D1F804E0C96857
:10227000DCF82030DCF8202022F00102CCF820200D
:10228000DCF8182022F0F00242EA011123F00A02E1
:1022900042EA0E02CCF81810CCF82020DCF8081026
:1022A00041F0470121F0300128E000BF6F2B33DD02
:1022B000B3F5005F74D0B3F5805F21D0702B40F090
:1022C0008380D1E901E3C968DCF8082043EA0E0302
:1022D00022F47F4243EA01211143CCF80810DCF8D4
:1022E000081041F0770109E00BB1102B6CD1DCF83C
:1022F000081021F07001194341F00701CCF80810D3
:102300000022012180F83D10002180F83C10BDE83A
:1023100080401046704700BF502B21D0602B53D116
:10232000D1F804E0C968DCF82030DCF8202022F085
:102330001002CCF82020DCF8182022F4704242EA87
:10234000013123F0A00242EA0E12CCF81810CCF8AA
:102350002020DCF8081041F0670121F01001CDE7E2
:10236000D1F804E0C968DCF82030DCF8202022F045
:102370000102CCF82020DCF8182022F0F00242EA1A
:10238000011123F00A0242EA0E02CCF81810CCF830
:102390002020DCF8081041F0570121F02001ADE7C2
:1023A000D1E901E3C968DCF8082043EA0E0322F40E
:1023B0007F4243EA01211143CCF80810DCF80810F1
:1023C00041F480419AE700BF01229AE7704700007C
:1023D00070B504460068C5680669B10716D515F0E2
:1023E000020113D06FF002010161012121778069A0
:1023F000800703D02046FFF7E9FF05E0204600F004
:102400008FF8204600F08EF800202077700719D54D
:1024100015F0040016D020686FF00401016102215C
:102420002177806910F4407F04D02046FFF7CEFF6B
:1024300006E000BF204600F073F8204600F072F876
:1024400000202077300717D515F0080014D0206839
:102450006FF00801016104212177C069800703D072
:102460002046FFF7B3FF05E0204600F059F820466C
:1024700000F058F800202077F00619D515F010006C
:1024800016D020686FF01001016108212177C06922
:1024900010F4407F04D02046FFF798FF06E000BF0D
:1024A000204600F03DF8204600F03CF80020207760
:1024B000F00718BF15F0010002D1300609D412E070
:1024C00020686FF001010161204600F02DF8300610
:1024D00009D515F0800006D020686FF080010161F9
:1024E0002046FFF789FD700609D515F0400006D09B
:1024F00020686FF040010161204600F0F3F8B0065B
:1025000058BF70BD15F0200008D021686FF0200280
:1025100020460A61BDE87040FFF770BD70BD000045
:1025200070470000704700002DE9F04786B0006852
:10253000B0F1804F02D006B0BDE8F08740F28808C5
:10254000C2F2000898F800000028F4D0FFF77CF9E8
:1025500040F20009C2F2000999F802100546084647
:1025600002F074FA044628460E4602F051FE00219D
:10257000C4F27A4102F03AFD40F6D071C4F249014A
:1025800002F0C2FE02F06EFC01F060FF224633460C
:1025900002F070FA01F0D6FFC8F81000D8F8104029
:1025A00098F8010058B12846002100F057FEC8F8FD
:1025B0001800D8F81810204602F080FC04464DF2AE
:1025C0000A71C4F21F11204602F0E8FC26464DF2C3
:1025D0000A71074600281CBF4DF20A76C4F21F1686
:1025E000CCF21F11304602F0EEFC054630460021C9
:1025F00002F0E9FC064624F000400021002D1CBF3B
:102600004DF20A70C4F21F10C4F2C821002F1CBF83
:102610004DF20A70C4F21F1002F076FE4FF07C51AA
:1026200002F04CFC02F0D8FD48F21F51C5F2EB114C
:1026300080FB011246F26761C6F2666180FB0137DA
:10264000BB1003EBD77383FB0117B91001EBD771F4
:1026500001EB8101A3EB410103EB8303A0EB4300FA
:1026600009F10B03185C571189F80300585C07EB5C
:10267000D27189F80400585C99F8011099F800208B
:10268000084089F805001046002E08BF4FF0FF30C3
:10269000002D18BF104689F80600D8F81000D8F8A9
:1026A000185099F8029098F801A002F0DBFB8046E0
:1026B00028460F4602F0D6FB054620460E4602F09D
:1026C000D1FB029045F61610C0F6000042463B468C
:1026D000CDE90056CDE9049A039100F025FE06B03D
:1026E000BDE8F087704700007047000070470000A9
:1026F000B0B582B001680A68CC684B6902F02F055A
:10270000202D04F0200505D125B102B0BDE8B04070
:1027100000F01CBD5FEA027C1EBF03F0010E04F452
:10272000907313EB0E0341D1036BD50618D5012B23
:1027300016D114F0100313D0002201920A680192FE
:102740004A680192019A496949064BD4818DC28D2C
:10275000C38D002B18BF914240F0F48102B0B0BD90
:1027600013062DD514F080032AD090F84120212A99
:10277000F4D18268B2F5805F03D10269002A00F0CB
:102780006782026A531C036212784A60C28C013A63
:102790001304C284E2D1C86820F08000C860C86811
:1027A00040F04000C86002B0B0BD00BFD30718BF02
:1027B00014F4807340F0D080530700F1D380D8E048
:1027C0005206CBD514F04002C8D0CA6822F04002AD
:1027D000CA60202180F8411002B0BDE8B04000F08E
:1027E000C3BB00BFC16B0A68526893B2002BB5D05F
:1027F000858DAB42B2D2C2858969202900F0A180C3
:10280000016851E8031F026821F4807142E8031354
:10281000DBB1016851E8031F026821F4807142E8CE
:10282000031393B1016851E8031F026821F480711A
:1028300042E803134BB1016851E8031F026821F419
:10284000807142E80313002BDAD1016851E8051FBB
:10285000026821F0010142E80513C3B3016851E8A1
:10286000051F026821F0010142E805137BB30168EE
:1028700051E8051F026821F0010142E8051333B356
:10288000016851E8051F026821F0010142E80513C3
:10289000002BDAD11BE000BF016851E8051F026878
:1028A00021F0400142E80513DBB1016851E8051F42
:1028B000026821F0400142E8051393B1016851E834
:1028C000051F026821F0400142E805134BB1016881
:1028D00051E8051F026821F0400142E80513002B72
:1028E000DAD1202180F8421000210163016851E80B
:1028F000031F026821F0100142E80313DBB10168F5
:1029000051E8031F026821F0100142E8031393B15C
:10291000016851E8031F026821F0100142E8031327
:102920004BB1016851E8031F026821F0100142E831
:102930000313002BDAD1C16B04460846FEF74CFDA9
:10294000204602214163818DC28D891A89B202B06D
:10295000BDE8B040FFF7C8BE436C43F001034364D9
:10296000530706D5BEF1000F03D0436C43F00203BA
:102970004364930706D5BEF1000F03D0436C43F0C8
:1029800004034364BCF1000F06D55EEA050303D0DF
:10299000436C43F008034364436C002B3FF4DEAE0A
:1029A000920605D525B1044600F0D0FB21682046EB
:1029B0004969426C01F0400102F00802891800F0F8
:1029C000B98000BF016851E8031F026821F49071CB
:1029D00042E80313BBB3016851E8031F026821F406
:1029E000907142E8031373B3016851E8031F026852
:1029F00021F4907142E803132BB3016851E8031FDF
:102A0000026821F4907142E80313002BDAD11AE036
:102A1000016851E8051F026821F0010142E8051331
:102A2000DBB1016851E8051F026821F0010142E8AD
:102A3000051393B1016851E8051F026821F00101F7
:102A400042E805134BB1016851E8051F026821F007
:102A5000010142E80513002BDAD1016B012924D1D1
:102A6000016851E8031F026821F0100142E80313D6
:102A7000DBB1016851E8031F026821F0100142E850
:102A8000031393B1016851E8031F026821F010019C
:102A900042E803134BB1016851E8031F026821F0BB
:102AA000100142E80313002BDAD1202180F84210F4
:102AB0000021016301684969490640F1C38001684A
:102AC00051E8051F026821F0400142E80513DBB11F
:102AD000016851E8051F026821F0400142E8051332
:102AE00093B1016851E8051F026821F0400142E8F6
:102AF00005134BB1016851E8051F026821F0400140
:102B000042E80513002BDAD1C16B002900F09A804E
:102B100043F24112C0F60002044608464A63FEF73B
:102B20007FFC00283FF41AAEE06B416B02B0BDE8B9
:102B3000B04008470446FFF7D9FD0020606402B0AA
:102B4000B0BD00BF891A00BF026852E8032F0368B6
:102B500022F4907243E80325BDB3026852E8032FC4
:102B6000036822F4907243E8032575B3026852E8C3
:102B7000032F036822F4907243E803252DB3026803
:102B800052E8032F036822F4907243E80325002DD6
:102B9000DAD11AE0026852E8052F036822F0010238
:102BA00043E80525DDB1026852E8052F036822F0ED
:102BB000010243E8052595B1026852E8052F036834
:102BC00022F0010243E805254DB1026852E8052FC5
:102BD000036822F0010243E80525002DDAD1202206
:102BE00080F8422000220263026852E8032F036843
:102BF00022F0100243E80325DDB1026852E8032FFA
:102C0000036822F0100243E8032595B1026852E8F8
:102C1000032F036822F0100243E803254DB1026838
:102C200052E8032F036822F0100243E80325002D29
:102C3000DAD1022289B2426302B0BDE8B040FFF7A8
:102C400053BD00BF02B0BDE8B040FFF74FBD00BFAD
:102C5000026A32F8023B6FF35F234B60026295E534
:102C6000002804BF0120704710B5044690F84100C9
:102C700028B9002084F84000204600F063F82420A2
:102C800084F841002068D4E90212C36823F4005399
:102C9000C360036923F440531A430261D4E9042357
:102CA0001143C268194341F20C639A431143C16056
:102CB0004169A26921F44071114343F60002C4F254
:102CC00001029042416103D0FEF758FF02E000BFCD
:102CD000FEF768FFD4E90023192148439900B0FBAF
:102CE000F1F048F21F5CC5F2EB1CA0FB0C314FF673
:102CF0009C734909C0F6FF7301FB0300322303EB09
:102D00000010A0FB0C03F02000EA531000EB0110B0
:102D1000C3F34311084490601069202120F49040CF
:102D20001061506920F02A005061D06840F40050D2
:102D3000D0600020606484F8411084F84210606321
:102D400010BD000070B586B040F60004C4F2010466
:102D50000068A4F54441002688420596CDE9036643
:102D6000029601D006B070BD41F21800C4F2020014
:102D7000416802AD41F400314160416801F4003125
:102D800001910199016841F0040101600068294640
:102D900000F00400019001980420029002200390AA
:102DA000032005902046FEF741FC0820CDE90206ED
:102DB000204629460496FEF739FC262000210022F1
:102DC000FEF7C2FD2620FEF7ADFD06B070BD000087
:102DD000704700002DE9F04381B0044690F84100AF
:102DE000202809D100294FF0010018BF002A07D17F
:102DF00001B0BDE8F08300BF022001B0BDE8F08360
:102E00000020606421201D460E4684F841001746CC
:102E1000FEF71AFDA784E784A1688146B1F5805FBB
:102E200002D1206900285DD037460020E28C21685D
:102E3000002A5DD06A1C24D0002D4AD0804600BFF5
:102E40000868000608D4FEF7FFFCA0EB0900A842C2
:102E50007AD82168C868F3E717B117F8010B04E0C6
:102E600038F8020B00276FF35F204860E08C0138D0
:102E7000E084E08C0028E3D13AE000BF0A68120643
:102E800009D40A68120606D40A6812065CBF0A68EA
:102E90005FEA0262F2D51FB117F8012B05E000BF0F
:102EA00030F8022B00276FF35F224A60E28C013A70
:102EB000E284E28C002AE4D11AE000BF30F8022B51
:102EC00000276FF35F224A60E28C013AE284E28CD1
:102ED00072B10A68120635D5002FEFD017F8012B12
:102EE000F1E700BF00273046E28C2168002AA1D11B
:102EF000086840061ED42DB3681C14D1086840062B
:102F00002AD40868400627D40868400624D40868F4
:102F100040064FF00000F1D50DE000BF2068C16809
:102F20000068400618D4FEF78FFCA0EB0900A84209
:102F3000F4D909E00020202184F8411001B0BDE857
:102F4000F08300BFFEF780FC0320202184F84110AD
:102F500001B0BDE8F08300BF0020202184F84110BB
:102F600001B0BDE8F083000070470000FEE70000FC
:102F70002DE9F04786B0002741F21800CDE904772B
:102F8000CDE90277C4F20200016840F6004841F042
:102F9000040101600168C4F2010801F0040101911B
:102FA00001990168A8F5806541F008010160006899
:102FB0004FF4407100F0080001900198284600226B
:102FC0004FF44079FEF73AFC404628210022FEF7F4
:102FD00035FC1220002402AE0290C1F211042846F2
:102FE0003146CDE90347FEF721FB4FF0010A404689
:102FF0003146CDE902A40497FEF718FB02242846C7
:103000003146CDE9029A04970594FEF70FFB08209C
:1030100002901120CDE90307404631460594FEF7A2
:1030200005FB2020CDE9020A40463146CDE9047473
:10303000FEF7FCFA062000210022FEF785FC0620A0
:10304000FEF770FC072000210022FEF77DFC072020
:10305000FEF768FC0A2000210022FEF775FC0A201A
:10306000FEF760FC06B0BDE8F087000080B586B0D2
:1030700040F2A4000021C2F200004FF0C70C0591FD
:10308000CDE90311CDE900114FF0804247F6FF432F
:10309000C0E9021C01618021C0E900238161FEF7C3
:1030A000EFFF002818BFFEF795F94FF4805002900B
:1030B00040F2A400C2F2000002A9FFF7B7F800280E
:1030C00018BFFEF787F940F2A400C2F2000069467B
:1030D000FEF796FF002818BFFEF77CF906B080BD0A
:1030E00080B540F2EC0044F20041C2F20000C4F2AC
:1030F000000100234FF00C0C4FF4E13280E80E0089
:10310000C0E90333C0E905C3C361FFF7A9FD002887
:1031100008BF80BDBDE88040FEF75CB9FEE7000057
:10312000FEE700007047000070470000FEF792BB0A
:103130007047000040F2A400C2F20000FFF748B957
:10314000406A0021C185C184FFF7D0BA81B090F8F0
:103150004210222921D183680246B3F5805F09D14C
:1031600052F8281F52F8183C002B63D003685B68A4
:103170000AE000BF52F8281F13B90369002BF5D0ED
:1031800003685B6803F07F030B7011680131116005
:10319000C18D01390A04C18502D001B0704700BF5A
:1031A0000168CA6822F02002CA60CA6822F48072EC
:1031B000CA604A6922F001024A61202180F8421067
:1031C00000214163026B012A3CD10163016851E88F
:1031D000031F026821F0100142E80313DBB101680C
:1031E00051E8031F026821F0100142E8031393B174
:1031F000016851E8031F026821F0100142E803133F
:103200004BB1016851E8031F026821F0100142E848
:103210000313002BDAD101680A68D20606D5002212
:1032200000920A680092496800910099818D01B06E
:10323000FFF75ABA026852686FF35F2221F8022B37
:103240008162A5E701B0FFF7C3BD000040F2EC00CA
:10325000C2F20000FFF74CBAFEE700002DE9F0478C
:1032600043F23906804601FB060044F66D69C4F25C
:10327000C61900FB096448F21F5A24F00040C5F249
:10328000EB1AA0FB0A125109642701FB170001F099
:10329000BFFF0025C4F2C825294601F0A7FE04FBA4
:1032A0000961064621F00041A1FB0A235A0902FBED
:1032B0001711084601F0ACFF294601F097FE0546BC
:1032C00030464FF07F5102F01FF84FF07C5101F073
:1032D000F5FD00210746C4F24001284602F014F82B
:1032E00001F0C0FD0E4640F6D0710546C4F2C9019A
:1032F000384602F009F80746404601F089FF0021F0
:10330000C4F27A4101F072FE394601F0FDFF01F08E
:10331000A9FD01F09BF82A46334601F0ABFB01F012
:1033200011F9BDE8F087000083B010B581B00DF150
:103330000C0C8CE80E0040F22401C2F20001097866
:10334000D1B140F23414C2F20004014603AA20466F
:103350000092FCF7A5FF7D280ED840F60D212152E2
:1033600002300021215482B240F2EC00C2F200008F
:1033700021466423FFF72EFD01B0BDE8104003B0E5
:103380007047000090B040F60049C4F20109FEF712
:103390006FFA00240120CDE90B44CDE909440A90DD
:1033A00010200B904FF4601002250F9006A8CDE975
:1033B00007440695CDE90D54FEF708FC0F20CDE932
:1033C00001054FF48060CDE9040401A802210394B3
:1033D000FEF7F6FAFFF7CCFDFFF748FEFFF780FE99
:1033E000484608210122FEF729FA40F20008C2F2FD
:1033F000000898F8000098F80110C04388F8000011
:10340000C84388F8010040F2A400C2F20000FEF7B1
:10341000D5FE40F2880AC2F2000A00BF44469AF87C
:10342000000014F8035F2021274617F8046F9AF86C
:10343000000048460022FEF701FA284600F062F834
:10344000304600F05FF8484620210122FEF7F6F9E9
:103450009AF8000020210028384618BF601D057822
:103460009AF8000000220028204618BF0130067894
:103470004846FEF7E3F9304600F044F8284600F0ED
:1034800041F8484620210122FEF7D8F99AF80000B9
:1034900020210028384618BFA01D05789AF80000A2
:1034A00000220028204618BF023006784846FEF762
:1034B000C5F9304600F026F8284600F023F84846C3
:1034C00020210122FEF7BAF99AF8000020210028F5
:1034D00018BFE71D3D789AF800000022002818BFA9
:1034E000033426784846FEF7A9F9304600F00AF87A
:1034F000284600F007F8484620210122FEF79EF9F1
:103500008CE70000B0B540F60004C4F201040546A3
:10351000C20920464FF40071FEF790F920464FF49F
:1035200080710022FEF78AF920464FF48071012253
:10353000FEF784F9C5F3801220464FF40071FEF7C0
:103540007DF920464FF480710022FEF777F920467E
:103550004FF480710122FEF771F9C5F34012204645
:103560004FF40071FEF76AF920464FF48071002293
:10357000FEF764F920464FF480710122FEF75EF9F0
:10358000C5F3001220464FF40071FEF757F92046AC
:103590004FF480710022FEF751F920464FF48071FC
:1035A0000122FEF74BF9C5F3C00220464FF400712B
:1035B000FEF744F920464FF480710022FEF73EF9F1
:1035C00020464FF480710122FEF738F9C5F38002DE
:1035D00020464FF40071FEF731F920464FF4807118
:1035E0000022FEF72BF920464FF480710122FEF7EE
:1035F00025F9C5F3400220464FF40071FEF71EF98D
:1036000020464FF480710022FEF718F920464FF44F
:1036100080710122FEF712F905F0010220464FF4F5
:103620000071FEF70BF920464FF480710022FEF77F
:1036300005F920464FF480710122BDE8B040FEF745
:10364000FDB85FEA400C08BF91F0000F4FEA8C23F1
:103650004FEAC12243EA51514FEA1C5018BF00F50E
:10366000F0404FEA300018BF41F000415FEA6C5C67
:1036700000F02980BCF1FF3F08BF40F08040704758
:10368000130C06BF12044FF0100C4FF0000C130E79
:1036900004BF12020CF1080C130F04BF12010CF14D
:1036A000040C930F04BF92000CF1020CD30F04BF63
:1036B00052000CF1010C11464FF00002A0F11F0066
:1036C000A0EB0C00704711F0004F08BF704731F0BD
:1036D00000413FF4D5AF0B0C06BF09044FF0100CAE
:1036E0004FF0000C0B0E04BF09020CF1080C0B0F7D
:1036F00004BF09010CF1040C8B0F04BF89000CF10D
:10370000020CCB0F04BF49000CF1010CCCF12003DB
:1037100022FA03F341EA030102FA0CF2A0EB0C00D7
:1037200000F101007047000023F07F4720F07F4C3C
:1037300080EA030000F00040ACEB070303F57C5384
:1037400003F1FF032DE9804909B44FEA144324EA49
:1037500003484FEA154B25EA0B4E0FF2042606EB01
:1037600013273E7803FB0667C7F5000707FB06F63D
:103770004FEAD64606F102064FEA543707FB066CBD
:10378000CCF1005C4FEA1C472CEA074C0CFB06F519
:1037900007FB06F404EB15464FEA961649085FEA64
:1037A000320234BF00204FF000404FEAD13706FB11
:1037B00007FC4FEA1C4C0CFB0BF7D21B03FB0CF76E
:1037C00061EB07010CFB0EF7B0EB074072EB174201
:1037D0000CFB08F734BFA2EB0742B2EB074261EBE8
:1037E00017414FEA0C444FEA910706FB07FC4FEAEA
:1037F0001C4C0CFB0BF7B0EBC74072EB573203FBD2
:103800000CF734BFA2EBC742B2EBC74261EB5731B2
:103810000CFB0EF7B0EBC70072EB57720CFB08F70E
:1038200034BFA2EBC702B2EBC70261EB57714FEA9C
:10383000816141EA92114FEA826242EA90124FEAB4
:10384000806004EBCC04039F4FEAD13706FB07FCF2
:103850004FEA1C4C0CFB0BF7D21B03FB0CF761EB84
:1038600007010CFB0EF7B0EB074072EB17420CFBA5
:1038700008F734BFA2EB0742B2EB074261EB1741F6
:103880004FEA8C5504EB9C244FEA910706FB07FC9A
:103890004FEA1C4C0CFB0BF7B0EBC74072EB5732F6
:1038A00003FB0CF734BFA2EBC742B2EBC74261EB9C
:1038B00057310CFB0EF7B0EBC70072EB57720CFBE5
:1038C00008F734BFA2EBC702B2EBC70261EB577136
:1038D0004FEA816141EA92114FEA826242EA901214
:1038E0004FEA806015EB4C2544F100044FEAD137D4
:1038F00006FB07FC4FEA1C4C0CFB0BF7D21B03FB2F
:103900000CF761EB07010CFB0EF7B0EB074072EB15
:1039100017420CFB08F734BFA2EB0742B2EB074299
:1039200061EB17414FEA813141EA92414FEA82321D
:1039300042EA90424FEA80304FEA0C7615EB1C15B4
:1039400044F1000448EA03434EEA0B484FF0000EEE
:10395000B2EB080C71EB030724BF624639464EEB0D
:103960000E0E4FF0000B0018524149414BEB0B0B70
:10397000B2EB080C71EB03077BF1000B24BF62462E
:1039800039464EEB0E0E4FF0000B001852414941E4
:103990004BEB0B0BB2EB080C71EB03077BF1000B4D
:1039A00024BF624639464EEB0E0E51EA020718BF9D
:1039B00046F0010616EB0E7655F1000254F10001B7
:1039C00003D5BDE88901BDE80088BDE88901BDE8EF
:1039D0000048B619524141EB0101A3F101037047C0
:1039E00080807F7E7D7C7B7A79787776767574733C
:1039F000727171706F6E6E6D6C6C6B6A6A696868FB
:103A0000676666656464636362616160605F5F5E90
:103A10005E5D5D5C5C5B5B5A5A5959585857575606
:103A2000565555555454535352525251515050506B
:103A30004F4F4F4E4E4D4D4D4C4C4C4B4B4B4A4ABD
:103A40004A49494948484847474747464646454501
:103A5000454444444443434343424242424141413A
:103A60009C46002B30D477002BD04FEA37071CB58B
:103A700003B44FF010004FF01001BAF1000F06D060
:103A8000BCF1000FDCBF40F0080040F008014FF02F
:103A900000000FBCBDE810400BF1010BBBF1010FA2
:103AA00008BF5FEA170722BF12F1010211F10101FD
:103AB0004FF0004143F1000300F0004043EA0000F2
:103AC0007047F9D35708D0E746EA06464FEA16464C
:103AD00013F1400F1FDD13F1200FDFBF16430A461D
:103AE000002120335B42BED0C3F1200746EA0646E0
:103AF0004FEA164602FA07F746EA070622FA03F2E9
:103B0000C3F1200701FA07F742EA070221FA03F19D
:103B10004FF00003A7E746EA020646EA06464FEAE8
:103B2000164646EA0106BCBF46EA0646360C4FF08A
:103B300000034FF000024FF0000194E72DE9804CA4
:103B400070B49A46934691E8380007C831EA400CB1
:103B500048BF34EA430C03D5FFF7E6FDFFF780FFCB
:103B6000F0BCBDE8008C2DE9804C70B49A469346B9
:103B700091E8380007C810F0804F08BF13F0804F5D
:103B800003D100F005F8FFF76BFFF0BCBDE8008C37
:103B900020F07F4723F07F4C80EA030000F00040D4
:103BA00007EB0C03A3F57C53A3F1FE0392F0000F87
:103BB00000F0B38095F0000F00F077802DE9014907
:103BC0004FEA114021EA00484FEA144624EA06472A
:103BD00000FB06FC08FB06F607FB08F818EB064896
:103BE0004CEB164C00FB07F718EB07484CEB174063
:103BF0004FEA124B22EA0B4E4FEA154625EA0647DA
:103C00000BFB06FC0EFB06F607FB0EFE1EEB064E3C
:103C10004CEB164C0BFB07F71EEB074E4CEB174B10
:103C200018EB0B0840F1000018EB0E0B58EB0008E6
:103C300040F100008F1A4FF000014FF000063CBF2A
:103C4000C943661B14BFB5EB040C00213CBFC9433C
:103C5000F61B4FEA174427EA04454FEA1C472CEAB3
:103C6000074C04FB076205FB07F70CFB05F616EB98
:103C7000074642EB174204FB0CFC16EB0C4642EBEA
:103C80001C421BEB060658EB020241414EEA8E0E27
:103C900046EA9E0601D5BDE80189B619524141EBBD
:103CA0000101A3F10103BDE801894FEA144524EAAB
:103CB00005464FEA114721EA074C05FB07F406FBCE
:103CC00007F70CFB06F111EB074144EB174405FB2A
:103CD0000CFC11EB0C4144EB1C444FEA124722EA66
:103CE000074C05FB07F206FB07F70CFB06F616EB85
:103CF000074642EB174205FB0CFC16EB0C4642EB69
:103D00001C456A1854F1000148BF7047B61952416A
:103D100041EB0101A3F10103704795F0000F37D08B
:103D20004FEA114221EA02464FEA144724EA074CBF
:103D300002FB07F106FB07F70CFB06F414EB074444
:103D400041EB174102FB0CFC14EB0C4441EB1C4112
:103D50004FEA154725EA074C02FB07F506FB07F774
:103D60000CFB06F616EB074645EB174502FB0CFC71
:103D700016EB0C4645EB1C42121951F1000148BFED
:103D80007047B619524141EB0101A3F1010370479D
:103D90004FEA144524EA05464FEA114721EA074C49
:103DA00005FB07F106FB07F70CFB06F212EB0742D7
:103DB00041EB174105FB0CFC12EB0C4251EB1C4193
:103DC0004FF0000648BF7047921841EB0101A3F184
:103DD00001037047490050EAC12018BF04204A0D72
:103DE00018BF40F0010040F2FF72B2EB515F08BF14
:103DF00040F00200012808BF052070472DE9F74F69
:103E0000144694B00021C4E902111599079121F0DC
:103E10000045C9498D4206DC1599C4E9000117B077
:103E20000020BDE8F08FC549DFF814A3A9423CDDAE
:103E30000799C44E0029C44FC44A1599534619DD49
:103E400000F022FF554506D0C14AC24B00F01CFFCE
:103E5000C4E900010AE04FF0D352BE4B00F014FF5A
:103E600032463B4600F010FFC4E9000117B00120C4
:103E7000BDE8F08F00F098FB554506D0B44AB54B2D
:103E800000F092FBC4E900010AE04FF0D352B14BBD
:103E900000F08AFB32463B4600F086FBC4E9000195
:103EA00017B04FF0FF30BDE8F08FAB49A94215992C
:103EB00078DB21F0004183468846A84AA84B00F0F1
:103EC000D9FD0022A74B00F06FFB00F079FD0990AF
:103ED00000F0A5FD06460F469C4A534600F0CAFD79
:103EE00043465A4600F0C4FE80468A46984A994B9B
:103EF0003046394600F0BEFD2A0D01250B924246A0
:103F0000534600F0B5FE032DC4E9000139D00B98EB
:103F1000C1F30A51401A05EB45111139814230DADB
:103F20009148C346784400EB0510CDF80CA00C90E6
:103F3000D0E900233046394600F09CFD02460B468E
:103F4000049106905846039900F09EFE80468A46EA
:103F500002460B465846039900F096FE049B069ACB
:103F600000F092FE83460C9803913946D0E9022373
:103F7000304600F07FFD5A46039B00F085FE6D1C25
:103F8000BDE707980028A2BF099817B0BDE8F08FD9
:103F9000616881F000416160099817B04042BDE856
:103FA000F08FFFE784461598C1F31301C0F30A5060
:103FB000A0F2F5304FEA601800F01F06C6F12000AD
:103FC000139000200690079041F4801E05206D4656
:103FD00076B1664A08EB00017A4452F8213002EBD0
:103FE0008101B3404A68139922FA01F1194305E0AF
:103FF0005F4908EB0002794451F82210A1FB0E271B
:10400000A1FB0C131A449A4234BF0123002303EB93
:10401000070A05EB8003D3E901B70F448F4234BF91
:104020000121002193448B4411B1934502D903E04F
:10403000934501D2012100E00021C3E901B75144B9
:1040400045F82010011EA0F10100C1DC0298059F77
:1040500000F10050800F12900298DDE903568000B5
:1040600000F0DDFC834628460D9100F0EFFC6FF078
:104070001D0201F0C0FACDE90E01304600F0E6FC69
:104080006FF03D0201F0B7FA80468A46384600F0EC
:10409000DDFC6FF05D0201F0AEFA07464246534682
:1040A000119100F081FADDE90E2300F07DFA5A4605
:1040B0000D9B00F079FA00250E465A4628460D9BC6
:1040C00000F0E2FDDDE90E2300F0DEFD424653463E
:1040D00000F0DAFD3A46119B00F0CAFDDFF898A027
:1040E000244A534600F0C6FC07468846234A244B20
:1040F0003146284600F0BEFC3A46434600F054FAEA
:10410000074688464FF0A84253463146284600F0FD
:10411000B1FC3A46434600F047FA159A12F0004FB8
:1041200004D0129A81F0004152421292C4E9000177
:10413000129817B0BDE8F08FFB21E93F7CD902400F
:10414000FB21F93F7370032E8A19A33B00004054F2
:104150003163621A61B4D03DFB21394183C8C96D16
:10416000305FE43F0000E03FD01700004C17000034
:104170002E170000182D4454FB21F93D3326A611BB
:10418000460B113C2DE9FF4D21F0004807460C4637
:10419000B8F1795F08DA00F013FC002801BF0020B5
:1041A000324904B0BDE8F08D3A4623461046194620
:1041B00000F060FC054602462D480E460B460621DF
:1041C000784400F05DF82A46334600F053FCDDE900
:1041D000022382468B463846214600F04BFC0446BB
:1041E0000F4652465B462846314600F043FC2246C5
:1041F0003B4600F049FD07468A464FF0FF3228460D
:10420000314601F0F8F91B4A90450ADA3A4653461E
:1042100000F03AFD04B00022BDE8F04D134B00F071
:1042200027BD154A4245A8BFA8F500154FF0000468
:10423000B8BF124D22462B4600F026FD06468846A2
:1042400022462B460020094900F01EFD04460D467B
:104250003A4653463046414600F016FD04B0224629
:104260002B46BDE8F04D00F003BD00000000F03F1C
:10427000041500003333D33F0000E93F0000D23F74
:104280002DE9F0414F1E00EBC7010446D1E90001C2
:1042900015461E4637F006020DD02A46334600F07A
:1042A000E9FB7F1E04EBC703D3E9002300F07CF990
:1042B00037F00602F1D1022F25D0042F13D0062F9C
:1042C00018BFBDE8F0812A46334600F0D3FBD4E99D
:1042D0000A2300F069F92A46334600F0CBFBD4E903
:1042E000082300F061F92A46334600F0C3FBD4E905
:1042F000062300F059F92A46334600F0BBFBD4E907
:10430000042300F051F92A46334600F0B3FBD4E908
:10431000022300F049F92A46334600F0ABFBD4E90A
:104320000023BDE8F04100F03FB900002DE9FF4D4A
:10433000054621F0004084B00C46B0F1795F0BDAFD
:104340002846FFF747FD042808BF00F06FF828460D
:1043500008B02146BDE8F08D2A460B46104600F015
:1043600089FB06460F462A46234600F083FB80461B
:1043700026488A4632463B4605217844FFF780FFAF
:1043800083461098029160B3214A224B4046514621
:1043900000F070FBCDE900015A4640465146029BB1
:1043A00000F068FB82468846DDE906014FF0FF32E7
:1043B00001F021F95246434600F066FC32463B4686
:1043C00000F058FBDDE9062300F05EFCDDE9002388
:1043D00000F05AFC08B02A462346BDE8F04D00F034
:1043E00047BC0B465A463046394600F043FB084A64
:1043F000084B00F0D9F84246534600F03BFB08B0AA
:104400002A462346BDE8F04D00F0CEB84A1400001D
:10441000495555555555C5BF012201F0ECB800224C
:1044200013461046114600F06FB90000024A002002
:10443000110701F0E0B8000001FDFFFF30380A2845
:1044400001D20120704700207047000000B5254BC5
:1044500021F0004287B09A4203DC0022134600920A
:104460002BE0214B9A4208D140B94FF00100FBF7F5
:1044700031FFFFF7D4FF07B000BD03DBFFF7CCFF30
:1044800007B000BD02AAFFF7B9FC10F003014FF01E
:1044900001000DD0012914D002291AD00DF1080C09
:1044A0009CE80F00FFF76EFE07B081F0004100BDF1
:1044B0000DF1080C00909CE80F00FFF737FF07B0E4
:1044C00000BD0DF1080C9CE80F00FFF75BFE07B084
:1044D00000BD0DF1080C00909CE80F00FFF726FFCF
:1044E000E2E70000FB21E93F0000F07F10B5002962
:1044F0000AD00878002807D005487844FCF712FF56
:10450000002801D0002010BD0248784410BD0000F2
:104510006E1400006614000010B500290AD0087857
:10452000002807D005487844FCF7FCFE002801D09D
:10453000002010BD0248784410BD00005E14000049
:104540005614000021F0004201F00043A2F1605235
:10455000B2F5801F28BFD2F17F6C0BD95FEA001C37
:1045600043EAC20242EB507018BF704728BF20F0E8
:1045700001007047B2F5801FBCBF184670474FEA74
:10458000410C1CF5001F02D2084600F084BF70B534
:1045900000F01AFB00000089FFF7F6BF4FF0004063
:1045A000A0F580007047000010B591EA030F48BFE6
:1045B00083F0004300F17083841A71EB030C05D281
:1045C000121943EB0C03001B61EB0C014FEA115471
:1045D000A4EB135CDFF81CE11EEA430F18BF9EEA50
:1045E000445F00F0748021EA045123EA0E0343F48F
:1045F0008013DCF1200E32D322FA0CFE10EB0E00F9
:1046000023FA0CFE41EB0E01CCF1200E03FA0EFE54
:1046100010EB0E00CCF1200E51F10001B1F5801F1E
:1046200032D201EB045112FA0EF2BDE8104058BF2D
:104630007047401C38BF5FEA420218BF704700282D
:1046400014BF20F0010041F100014FEA410313F5CE
:10465000001F38BF7047A1F1C04100F003BB012A21
:1046600043EB0302ACF1200CDCF11F0E32BF4FF024
:10467000000E23FA0CF310EB030041EB0451B4EBF2
:10468000115FD0D0A1EB045101F58011490801EB75
:1046900004515FEA30000ED350F1000038BF12FA27
:1046A0000EFE08D1BDE81040C9E7401C38BF5FEAE4
:1046B0004202CAD1C3E7BDE810404FEA410313F5F7
:1046C000001F38BF7047A1F1C04100F0CBBA9EEA8D
:1046D000445F08D011EA5E0FBDE8104004BF01F04E
:1046E000004100207047BDE8104070B500F06CFA42
:1046F00064FBBE3E0000E0FF02494FF0000000F006
:1047000048BF00BF0000F87F2DE9C04130B4DFF89A
:10471000A8C23CEA111418BF3CEA131400F0F08060
:104720001CEA111481EA030544EAD57418BF1CEA97
:10473000131500F0CB80A4EB050404F17F7404F59D
:1047400000344FF0004545EAC12145EAC32341EA60
:10475000505143EA52534FEAC0204FEAC2229942D5
:1047600008BF904200F0A0804FEA13650FF2481690
:10477000765D4FEA134506FB05F7C7F1807706FB28
:1047800007F74FEAD737A7FB03687642A7FB06CEA9
:10479000C8F5803838BFA8F1010807FB08E6A6FB7A
:1047A000028C4FF0000EE6FB03CED8F100086FEA52
:1047B0000C0C5CF1000C6FEA0E0E4EF1004EA6FBE5
:1047C0000C584FF00007E6FB0E87A1FB08C6A0FBC4
:1047D00007CE16EB0E064FF0000545F10005E1FB94
:1047E000076515F1E04E7EBFA4F580345FEA46060A
:1047F0006D4116F1800745F100054FEA172747EA9A
:1048000005674FEA15254FEA0666A6F1DE46B6F1C2
:10481000805F20D9384605EBC47124F0010C01EB10
:104820000C11BCF1FE6F02D8F0BCBDE8008124423F
:104830005CBF01F5801E9EEAC47F02D4F0BCBDE8D7
:104840000081244200F13980A1F1C041F0BCBDE8F3
:10485000004100F007BA4FEAD02040EA41504FEA49
:10486000D1214FEAD22242EA43524FEAD323A7FB97
:10487000028607FB036605FB02661EEA0E0F58BFA1
:10488000A6EB0056B6EB00564FEA520E4EEAC37E38
:1048900018EB0E0E56EB530EBCD518EB02085E411A
:1048A0007F1C55F10005B5E74FF480154FF0000768
:1048B0004FF000064FF00008ACE701F1C04101F0F5
:1048C00000414FF00000F0BCBDE800810CEA131578
:1048D00011EA0C1F00D00CE013EA0C1F00F0258039
:1048E0004FF0000081EA030101F00041F0BCBDE897
:1048F0000081F0BCBDE8004181EA030100F0B2B9DB
:10490000F0BCBDE8004170B500F05EF9097EFC3EE8
:1049100000F007B84FF0000081EA030101F0004108
:10492000704781EA030100F09DB9F0BCBDE8004189
:1049300022494FF000007047FFFDFBF9F7F5F4F254
:10494000F0EEEDEBE9E8E6E4E3E1E0DEDDDBDAD82A
:10495000D7D5D4D3D1D0CFCDCCCBCAC8C7C6C5C488
:10496000C2C1C0BFBEBDBCBBBAB9B8B7B6B5B4B39F
:10497000B2B1B0AFAEADACABAAA9A8A8A7A6A5A48A
:10498000A3A3A2A1A09F9F9E9D9C9C9B9A9999984E
:104990009797969595949393929191908F8F8E8EF1
:1049A0008D8C8C8B8B8A898988888787868585847E
:1049B00084838382828181800000FF070000F87F6A
:1049C0004FEA41034FEA5353A3F58063D3F11E032B
:1049D000C8BFD3F1210C0CDD4FF0004242EAC122E6
:1049E00042EA505232FA03FC8CEAE17CACEBE17013
:1049F0007047102BC4BF0020704703F5787CBCF1D2
:104A0000FF3F04D06FF0004282EA2100704770B58A
:104A100000F0DAF84992248000207047F2E710F0A5
:104A2000004248BF4042B0FA80F310FA03F10AD0C6
:104A3000C3F11D0303F5806302EB03524FEA4150BB
:104A400002EBD12170474FF000007047B0FA80F3BD
:104A500010FA03F10AD0C3F11D0303F580634FEA96
:104A600003524FEA415002EBD12170474FF0000052
:104A70007047000070B5DFF848C11CEA111E1EBF68
:104A80001CEA13159EEA0C0F95EA0C0F00F06F80DC
:104A900081EA03044EEAD47EAE4421EA4C1123EAB3
:104AA0004C1341F4801143F48013AEF17F7EA1FBDF
:104AB000024CA0FB0365361955EB0C05A1FB034C1A
:104AC0004CF10003A0FB021C16EB0C06654153F1F0
:104AD0000003094218BF46F0010613F4007F0BD112
:104AE0004FEA03314FEA053041EA155140EA1650CA
:104AF00034036FF003020AE04FEAC3214FEAC520F6
:104B000041EA555140EA5650F4026FF0020202EBBE
:104B10002E4201EB025585EACE710AD05FEA440CC1
:104B200018BF24F0004450F1000041F1000120EAD8
:104B3000D47040F2FE7C624500D270BDA84214BF22
:104B40004FF080444FF04044002E08BF0024BEF1D7
:104B5000806FA8BFA1F1C041BDE8704080F28280A3
:104B600001F1C04101F000414FF0000070470CEA34
:104B700013159EEA0C0F18BF95EA0C0F06D081EAB8
:104B8000030E4FF000000EF0004170BD00F01CF865
:104B90008900013E00F007B800F009B84FEA430C65
:104BA0005FEA5C5C08D081EA030100F05BB84FEA81
:104BB000410C5FEA5C5CF6D102494FF0000070479F
:104BC0000000FF070000F87F0EF1020E2EF0030E2A
:104BD0005EF8046B364205D4012A43EB030515F554
:104BE000001F12D8012841EB010C1CF5001F0CD846
:104BF0000ED14FEAD17C0CEB4C0C0CF1020C15F5EC
:104C0000001F08BF4CEBD37C04E04FF0080C01E020
:104C10004FEAD37C0CEB4C0526FA05F606F00706A6
:104C2000B6F1040C06D20EEB860CBDE870404CF0D9
:104C3000010C6047DFE80CF0090B02024FF0004165
:104C4000A1F500214FF0000070BD19461046012863
:104C500051EB010418BFD4F5001484BF002001F00B
:104C6000004170BD0808A0F500114FEA31017047FE
:104C700010B591EA030F81F000413FF59DAC83F040
:104C8000004300F009B8000010B591EA030F48BFD7
:104C900083F000433FF590AC841A71EB030C07D20C
:104CA0008CF0004C121943EB0C03001B61EB0C0160
:104CB0004FEA1154A4EB135CDFF8A4E11EEA430FA2
:104CC00018BF9EEA445F00F0B48021EA045123EA51
:104CD0006E035242C3EB6E0338BF5B1EDCF1200E45
:104CE00025D322FA0CFE10EB0E0043FA0CFE41EB2A
:104CF0000E01CCF1200E03FA0EFE10EB0E00CCF1EB
:104D0000200E51F1000129D401EB045112FA0EF2E8
:104D1000BDE8104058BF7047401C1CBFB2F1004FA7
:104D2000704700280CBF491C20F00100704712EBAF
:104D3000020E43EB030218BF4FF0010E4EEA42028F
:104D4000ACF1200CDCF11E0E56D943FA0CFE10EB30
:104D50000E00CCF11E0E51F1FF31D5D50EF1010E32
:104D600012FA0EFE404141EB010101EB445C5FEAA7
:104D70005C5C10D901EB045110EBDE7038BFBEF162
:104D8000004FBDE8104018BF704700280CBF491CF9
:104D900020F00100704734D24FEAD42C24F4006490
:104DA00011F500111BD0B1FA81F20B3AA41AA41E1E
:104DB000D2F12003914030FA03F31943904001EB04
:104DC000CC7101EB0451002CBDE81040A8BF704726
:104DD00001F1C04101F000414FF000007047B0FA0E
:104DE00080F310FA03F102D1BDE810407047E41AD5
:104DF000173C4805C90AE2E701EB0451BDE8104041
:104E0000704749104FEA300001EB0451BDE81040F3
:104E100002E04FF0000170474A0008BF0042F8D09E
:104E2000B2F5001F28BF704701F000414FF00000AD
:104E300070479EEA445F07D011EA5E0FBDE810405C
:104E400004BF002100207047BDE8104070B5FFF797
:104E5000BBFE00BF40DFF63E104683F000417047C6
:104E60000000E0FF43004FEAD30C4FEA3C0C434004
:104E70001FBF40070CF1605113F0FE4F70471CF04C
:104E8000006F03D10CF00041002070470CF000438C
:104E900043EA507040EACC0010B500F0B6FA00BF0B
:104EA000000000924FEA0001FFF7DCBE4FF0004126
:104EB000A1F500214FF000007047000090EA010FBB
:104EC00048BF81F0004100F1F282421A3CBF801AD3
:104ED00089184FEAD052A2EBD1534FF07F4C1CEA15
:104EE000410F18BF9CEA026F00F03B804FF0004C6E
:104EF0004CEA00204CEA012121FA03FC10EB0C0CD7
:104F00001ED202F1FF325FEA1C2040EBC25038BFD4
:104F100070471CF07F0F4FEA400C18BFBCF17F4F69
:104F200038BF7047C3F12003994008BF20F001004B
:104F3000BCF17F4F38BF7047A0F1C04000F0ABBA62
:104F40004FEA3C00000A40EBC25028BF1CF0FF0FA4
:104F50004FEA400CE6D018BFBCF17F4F38BF704716
:104F6000EAE79CEA026F05D010EA5C0F08BF00F088
:104F70000040704710B500F048FA00BF64FBBE3E29
:104F800010B500F0F5F80CBF0120002010BD10B5E1
:104F900000F0EEF814BF0120002010BD10B500F0A5
:104FA0004BF98CBF0120002010BD10B500F044F972
:104FB0002CBF0120002010BD10B500F071F994BF86
:104FC0000120002010BD10B500F06AF934BF0120A7
:104FD000002010BD401058BFC0F14040491058BFDC
:104FE000C1F140418142EFF3008070474FF47F0CE4
:104FF0001CEAD0121EBF1CEAD11392EA0C0F93EAEE
:105000000C0F00F0858090EA010F48BF42F48072D7
:1050100040F4000C41F400002CF07F4120F07F4070
:1050200000B5A2EB030281420FF2081CACEB504E1C
:105030009EF800E0C0F100004FEA4E0E00FB0EFCAF
:1050400038BF49004FEA2C1C0CFB0EF34FEACE1E72
:105050000EEB635E4FEA112C0EFB0CFC4FEAC121F4
:105060004FEA1C5300FB031102F5FA024FEA112C20
:105070000EFB0CFC4FEA01314FEADC4C00FB0C113B
:1050800042EB2242C14228BF09184CEB03335DF8C2
:1050900004EB10EB410143EBC250B2F57C0F38BF7B
:1050A000704729D512F0F00F1CBF00F1C04000F08E
:1050B00000407047008182838485868788898B8C35
:1050C0008D8E8F919293959697999A9C9D9FA0A271
:1050D000A3A5A7A8AAACAEB0B2B3B5B7B9BCBEC0C1
:1050E000C2C5C7C9CCCED1D4D7D9DCDFE2E6E9EC62
:1050F000F0F3F7FAFE0000004FEA400C0CF1807C60
:10510000BCF17E4F28BF7047B0F1C04000F0C3B97A
:105110000CEAD11390EA010F48BF42F48072624555
:1051200038BF634507D213F47F0F16D080EA010021
:1051300000F00040704710B500F067F9097EFC3EB2
:1051400000F005B880EA010000F00040704780EAF6
:10515000010000F0004000F09EB912F47F0F04BF80
:105160000248704780EA010000F095B90000C07F56
:1051700050EA010C00F113801CF5000F58BFBCF57C
:10518000000F01D48842704707D710F5000F58BFB1
:1051900011F5000F15D488427047894270471CF5FD
:1051A000000F04D5BCF5000FF7D5814270474FF0D2
:1051B000807C1CEB400F38BF1CEB410F01D28142B9
:1051C000704710B500F021F9922449004FF00050CB
:1051D0004FF08051FFF7FEBE41000B0ED3F19E024F
:1051E00008D950F400034FEA032323FA02F048BF22
:1051F0004042704710B500F008F900BF4992248082
:10520000002070476FF0004282EA200070470000E3
:10521000B0FA80F310FA03F2C3F19D030AD0D90566
:1052200001EB1220530638BF704700F1010008BFA0
:1052300020F001007047000050EA010C00F11380DB
:105240001CF5000F58BFBCF5000F01D48842704711
:1052500007D710F5000F58BF11F5000F15D488427D
:105260007047894270471CF5000F04D5BCF5000F4C
:10527000F7D5814270474FF0807C1CEB400F38BF60
:105280001CEB410F01D28142704710B500F0BDF810
:10529000922449004FF080504FF00051FFF79ABE22
:1052A00050EA010C00F113801CF5000F58BFBCF54B
:1052B000000F01D48842704707D710F5000F58BF80
:1052C00011F5000F15D488427047894270471CF5CC
:1052D000000F04D5BCF5000FF7D5814270474FF0A1
:1052E000807C1CEB400F38BF1CEB410F01D2814288
:1052F000704710B500F089F8922449004FF0005033
:105300004FF08051FFF766BE4FF47F0C1CEAD012BD
:105310001EBF1CEAD11392EA0C0F93EA0C0F00F0A7
:10532000478090EA010F48BF42F480724FF0004C72
:105330004CEA00204CEA012102EB0302A0FB01131E
:10534000A2F50002002918BF43F001035B0028BF4B
:105350004FEA330342EB22425FEA132C4CEBC2507C
:105360002EBFBCEB436FB2F57C0F70474FEA036C66
:10537000BCF1004F08BF20F00100B2F57C0F38BF30
:1053800070470BD582F0FF0212F5803FC8BF70470F
:1053900000F1C040D8BF00F00040704700F5000C9D
:1053A0005FEA4C0C48BF7047B0F1C04000F073B8E2
:1053B0000CEAD11390EA010F48BF42F480726245B3
:1053C00038BF634504D280EA010000F00040704716
:1053D00010B500F01AF800BF8900013E00F007B8D0
:1053E00000F009B85FEA410C5FEA1C6C08D080EA63
:1053F000010000F050B85FEA400C5FEA1C6CF6D187
:105400004FF00040A0F5800070470EF1020E2EF024
:10541000030E5EF8044B244204D44FEA4102B2F179
:105420007F4F11D84FEA4003B3F17F4F0CD80ED114
:105430004FEAD07C0CEB4C0C0CF1020CB2F17F4F1C
:1054400008BF4CEBD17C04E04FF0080C01E04FEAC0
:10545000D17C0CEB4C0324FA03F404F00704B4F100
:10546000040C06D20EEB840CBDE810404CF0010C8D
:105470006047DFE80CF0070802024FF00040A0F59B
:10548000800010BD0846420018BFD2F1807288BF6C
:1054900000F0004010BDFF2141EAD050C005704728
:1054A00090EA010F48BF81F000413FF50EAD421A6E
:1054B00004D882F00042A0EB020011444FEAD0521F
:1054C000A2EBD1534FF07F4C1CEA410F18BF9CEA6E
:1054D000026F4AD04FF0004C4CEA00204CEA012108
:1054E00021FA03FCB0EB0C0C0FD412F0FE0F36D0F7
:1054F0005FEA4C001DD5001240EBC25038BF704728
:105500001CF03F0F18BF70470BE05FEA1C20A2F1B0
:10551000010240EBC25038BF70471CF07F0F18BF2C
:105520007047C3F12003994014BF401E20F00100D2
:1055300070474FEA1223800808BF7047B0FA80FC1A
:10554000A2EB0C02CCF1280C60FA0CF093EA122FBB
:1055500004BF00EBC25070474FEAC3707047130A94
:105560005FEADC1008BF7047F6E79CEA026F04D0E0
:1055700010EA5C0F08BF0020704710B5FFF745FF29
:1055800040DFF63E81F000407047FBF7D5BAFBF7ED
:1055900009BC0CF00F03092B08BF082000F059804C
:1055A0000A2B0BD0082B18BF704708BF1CF0400F08
:1055B0000AD04FF000004FF0000170471CF0400F80
:1055C00018BF4FF0004070471CF0100F08D000F0DB
:1055D0007F4220F0704342EAD3014FEA43707047A4
:1055E00000F0604021F07F4242EA000201F07F407B
:1055F00040EA727070474FF0FF0C4CF4E06C1CEA0C
:1056000011531CBF9CEA030C9445C2BFDA4201EB64
:1056100002517047002B0DD0BCF1000F0FD001F0EC
:105620000041002AA4BF41F0E04141F07F614FF00A
:105630000000704701F000414FF00000704750EA51
:1056400001334FF09B0C18BF4CF0806C7FF454A8D2
:1056500070471CF4801F11D01CF4E02F03D06FEAB8
:10566000CC31490070474FF04050EFF3008222F0F8
:10567000704242EA000282F3008870474FF0000057
:10568000704700000000000000000000303132339D
:105690003435363738394142434445464030580066
:1056A0003031323334353637383961626364656698
:1056B00040307800040000080000000000000002F4
:1056C00000010000100000004C5555555555A53FF0
:1056D0007751C1166CC156BF9015CB19A001FA3E87
:1056E000AD529C804F7E92BEC4B1B4BD9EEE213EB1
:1056F000D43888BEE9FAA8BD00004054FB21F93F28
:105700003163621A61B4D03D0000601A61B4D03DCB
:105710007370032E8A19A33B0000002E8A19A33B45
:10572000C14920259A837B39000000000000000059
:105730006E83F9A22915444ED15727FCC0DD34F5FC
:10574000999562DB4190433CAB6351FE61C5BBDE82
:105750003A6E24B7E0D24D42EA2E49061C92D10996
:105760001CEB1DFE3EA729B1F53582E88444BB2E13
:1057700026709CE9417E5FB439D69139F439538360
:105780008B5F849C3B28F9BDFF97F81F0F9805DEBF
:105790008B112FEF1F6D0A5ACF7E366DB709CB27BD
:1057A000663F464F2DEA5F9EC7BA27757BF1E5EB52
:1057B000F739073DEA92528AB15FFB6B085D8D1F96
:1057C0004630035600000000A6F810111111813F69
:1057D000D561C119A0012ABF7DFEB157E31DC73EA7
:1057E000EB9C2B8AE6E55ABE7CD5CF5A3AD9E53DEB
:1057F0003031323334353637383961626364656647
:1058000078700030313233343536373839414243DD
:10581000444546585000000002400000000000A02F
:105820000000000005400000000000C8000000006B
:105830000C4000000000409C0000000019400000E7
:105840000020BCBE0000000034400000BFC91B8E19
:1058500000000004B5400000504BCFD06607E2CFF7
:10586000010000006C4100003E8251AADFEEA73427
:1058700001000000D9420000DCB5A0E23A301F97D9
:10588000FFFFFFFFB4450000FD25A0C8E9A3C14FFD
:10589000FFFFFFFFFF3F000000000080000000004E
:1058A000FF3F00000000008000000000000000003A
:1058B00000000000010203040607080900000000C0
:1058C00001020304010202030405060708090A0B8A
:1058D0000C0D0E0F10105349474E414C5F53544F5F
:1058E00050202D2052414E44005349474E414C5FB9
:1058F0005354415254202D2052414E4400534947A5
:105900004E414C5F53544F50005349474E414C5FFA
:105910005354415254005349473A252E33662C259F
:105920002E33662C252E33662C25642C25640041ED
:105930004D504C49545544455F4348414E474544BA
:105940003A25640025730000985A000800000020E2
:105950002800000050010008C05A0008280000205C
:1059600090070000700100081C00000043000000C8
:10597000F8FFFFFF0C0000000E0000000F00000009
:105980002E0000001001000043000000F8FFFFFFA0
:105990000040404040404040404041414141414042
:1059A00040404040404040404040404040404040F7
:1059B0004005020202020202020202020202020286
:1059C000022020202020202020202002020202028B
:1059D00002029090909090901010101010101010E3
:1059E00010101010101010101010101002020202EF
:1059F0000202888888888888080808080808080833
:105A0000080808080808080808080808020202022E
:105A10004000000000000000000000000000000046
:105A20000000000000000000000000000000000076
:105A30000000000000000000000000000000000066
:105A40000000000000000000000000000000000056
:105A50000000000000000000000000000000000046
:105A60000000000000000000000000000000000036
:105A70000000000000000000000000000000000026
:105A80000000000000000000000000000000000016
:105A90000000000000000000408001FFFFFFFFF851
:105AA000F4F2F1C0F9A4B0999282F880900000005D
:105AB000010000001000000000127A000100000048
:04000005080000ED02
:00000001FF
